{
  "_format": "hh-sol-artifact-1",
  "contractName": "Talent",
  "sourceName": "contracts/TalentMarketplace.sol",
  "abi": [
    {
      "inputs": [],
      "stateMutability": "nonpayable",
      "type": "constructor"
    },
    {
      "anonymous": false,
      "inputs": [
        {
          "indexed": true,
          "internalType": "address",
          "name": "owner",
          "type": "address"
        },
        {
          "indexed": true,
          "internalType": "address",
          "name": "approved",
          "type": "address"
        },
        {
          "indexed": true,
          "internalType": "uint256",
          "name": "tokenId",
          "type": "uint256"
        }
      ],
      "name": "Approval",
      "type": "event"
    },
    {
      "anonymous": false,
      "inputs": [
        {
          "indexed": true,
          "internalType": "address",
          "name": "owner",
          "type": "address"
        },
        {
          "indexed": true,
          "internalType": "address",
          "name": "operator",
          "type": "address"
        },
        {
          "indexed": false,
          "internalType": "bool",
          "name": "approved",
          "type": "bool"
        }
      ],
      "name": "ApprovalForAll",
      "type": "event"
    },
    {
      "anonymous": false,
      "inputs": [
        {
          "indexed": true,
          "internalType": "uint256",
          "name": "tokenId",
          "type": "uint256"
        },
        {
          "indexed": false,
          "internalType": "address",
          "name": "artiste",
          "type": "address"
        },
        {
          "indexed": false,
          "internalType": "address",
          "name": "owner",
          "type": "address"
        },
        {
          "indexed": false,
          "internalType": "bool",
          "name": "contacted",
          "type": "bool"
        }
      ],
      "name": "MarketItemCreated",
      "type": "event"
    },
    {
      "anonymous": false,
      "inputs": [
        {
          "indexed": true,
          "internalType": "address",
          "name": "from",
          "type": "address"
        },
        {
          "indexed": true,
          "internalType": "address",
          "name": "to",
          "type": "address"
        },
        {
          "indexed": true,
          "internalType": "uint256",
          "name": "tokenId",
          "type": "uint256"
        }
      ],
      "name": "Transfer",
      "type": "event"
    },
    {
      "inputs": [
        {
          "internalType": "address",
          "name": "to",
          "type": "address"
        },
        {
          "internalType": "uint256",
          "name": "tokenId",
          "type": "uint256"
        }
      ],
      "name": "approve",
      "outputs": [],
      "stateMutability": "nonpayable",
      "type": "function"
    },
    {
      "inputs": [
        {
          "internalType": "address",
          "name": "owner",
          "type": "address"
        }
      ],
      "name": "balanceOf",
      "outputs": [
        {
          "internalType": "uint256",
          "name": "",
          "type": "uint256"
        }
      ],
      "stateMutability": "view",
      "type": "function"
    },
    {
      "inputs": [
        {
          "internalType": "string",
          "name": "tokenURI",
          "type": "string"
        }
      ],
      "name": "createToken",
      "outputs": [
        {
          "internalType": "uint256",
          "name": "",
          "type": "uint256"
        }
      ],
      "stateMutability": "payable",
      "type": "function"
    },
    {
      "inputs": [],
      "name": "fetchItemsListed",
      "outputs": [
        {
          "components": [
            {
              "internalType": "uint256",
              "name": "tokenId",
              "type": "uint256"
            },
            {
              "internalType": "address payable",
              "name": "artiste",
              "type": "address"
            },
            {
              "internalType": "address payable",
              "name": "owner",
              "type": "address"
            },
            {
              "internalType": "bool",
              "name": "contacted",
              "type": "bool"
            }
          ],
          "internalType": "struct Talent.MarketItem[]",
          "name": "",
          "type": "tuple[]"
        }
      ],
      "stateMutability": "view",
      "type": "function"
    },
    {
      "inputs": [],
      "name": "fetchMarketItems",
      "outputs": [
        {
          "components": [
            {
              "internalType": "uint256",
              "name": "tokenId",
              "type": "uint256"
            },
            {
              "internalType": "address payable",
              "name": "artiste",
              "type": "address"
            },
            {
              "internalType": "address payable",
              "name": "owner",
              "type": "address"
            },
            {
              "internalType": "bool",
              "name": "contacted",
              "type": "bool"
            }
          ],
          "internalType": "struct Talent.MarketItem[]",
          "name": "",
          "type": "tuple[]"
        }
      ],
      "stateMutability": "view",
      "type": "function"
    },
    {
      "inputs": [],
      "name": "fetchMyNFTs",
      "outputs": [
        {
          "components": [
            {
              "internalType": "uint256",
              "name": "tokenId",
              "type": "uint256"
            },
            {
              "internalType": "address payable",
              "name": "artiste",
              "type": "address"
            },
            {
              "internalType": "address payable",
              "name": "owner",
              "type": "address"
            },
            {
              "internalType": "bool",
              "name": "contacted",
              "type": "bool"
            }
          ],
          "internalType": "struct Talent.MarketItem[]",
          "name": "",
          "type": "tuple[]"
        }
      ],
      "stateMutability": "view",
      "type": "function"
    },
    {
      "inputs": [
        {
          "internalType": "uint256",
          "name": "tokenId",
          "type": "uint256"
        }
      ],
      "name": "getApproved",
      "outputs": [
        {
          "internalType": "address",
          "name": "",
          "type": "address"
        }
      ],
      "stateMutability": "view",
      "type": "function"
    },
    {
      "inputs": [
        {
          "internalType": "address",
          "name": "owner",
          "type": "address"
        },
        {
          "internalType": "address",
          "name": "operator",
          "type": "address"
        }
      ],
      "name": "isApprovedForAll",
      "outputs": [
        {
          "internalType": "bool",
          "name": "",
          "type": "bool"
        }
      ],
      "stateMutability": "view",
      "type": "function"
    },
    {
      "inputs": [],
      "name": "name",
      "outputs": [
        {
          "internalType": "string",
          "name": "",
          "type": "string"
        }
      ],
      "stateMutability": "view",
      "type": "function"
    },
    {
      "inputs": [
        {
          "internalType": "uint256",
          "name": "tokenId",
          "type": "uint256"
        }
      ],
      "name": "ownerOf",
      "outputs": [
        {
          "internalType": "address",
          "name": "",
          "type": "address"
        }
      ],
      "stateMutability": "view",
      "type": "function"
    },
    {
      "inputs": [
        {
          "internalType": "address",
          "name": "from",
          "type": "address"
        },
        {
          "internalType": "address",
          "name": "to",
          "type": "address"
        },
        {
          "internalType": "uint256",
          "name": "tokenId",
          "type": "uint256"
        }
      ],
      "name": "safeTransferFrom",
      "outputs": [],
      "stateMutability": "nonpayable",
      "type": "function"
    },
    {
      "inputs": [
        {
          "internalType": "address",
          "name": "from",
          "type": "address"
        },
        {
          "internalType": "address",
          "name": "to",
          "type": "address"
        },
        {
          "internalType": "uint256",
          "name": "tokenId",
          "type": "uint256"
        },
        {
          "internalType": "bytes",
          "name": "_data",
          "type": "bytes"
        }
      ],
      "name": "safeTransferFrom",
      "outputs": [],
      "stateMutability": "nonpayable",
      "type": "function"
    },
    {
      "inputs": [
        {
          "internalType": "address",
          "name": "operator",
          "type": "address"
        },
        {
          "internalType": "bool",
          "name": "approved",
          "type": "bool"
        }
      ],
      "name": "setApprovalForAll",
      "outputs": [],
      "stateMutability": "nonpayable",
      "type": "function"
    },
    {
      "inputs": [
        {
          "internalType": "bytes4",
          "name": "interfaceId",
          "type": "bytes4"
        }
      ],
      "name": "supportsInterface",
      "outputs": [
        {
          "internalType": "bool",
          "name": "",
          "type": "bool"
        }
      ],
      "stateMutability": "view",
      "type": "function"
    },
    {
      "inputs": [],
      "name": "symbol",
      "outputs": [
        {
          "internalType": "string",
          "name": "",
          "type": "string"
        }
      ],
      "stateMutability": "view",
      "type": "function"
    },
    {
      "inputs": [
        {
          "internalType": "uint256",
          "name": "tokenId",
          "type": "uint256"
        }
      ],
      "name": "tokenURI",
      "outputs": [
        {
          "internalType": "string",
          "name": "",
          "type": "string"
        }
      ],
      "stateMutability": "view",
      "type": "function"
    },
    {
      "inputs": [
        {
          "internalType": "address",
          "name": "from",
          "type": "address"
        },
        {
          "internalType": "address",
          "name": "to",
          "type": "address"
        },
        {
          "internalType": "uint256",
          "name": "tokenId",
          "type": "uint256"
        }
      ],
      "name": "transferFrom",
      "outputs": [],
      "stateMutability": "nonpayable",
      "type": "function"
    }
  ],
  "bytecode": "0x60806040523480156200001157600080fd5b50604080518082018252600d81526c54616c656e74204d757369636160981b602080830191825283518085019094526004845263746d757360e01b908401528151919291620000639160009162000094565b5080516200007990600190602084019062000094565b5050600980546001600160a01b031916331790555062000177565b828054620000a2906200013a565b90600052602060002090601f016020900481019282620000c6576000855562000111565b82601f10620000e157805160ff191683800117855562000111565b8280016001018555821562000111579182015b8281111562000111578251825591602001919060010190620000f4565b506200011f92915062000123565b5090565b5b808211156200011f576000815560010162000124565b600181811c908216806200014f57607f821691505b602082108114156200017157634e487b7160e01b600052602260045260246000fd5b50919050565b611e3a80620001876000396000f3fe6080604052600436106100fe5760003560e01c806345576f941161009557806395d89b411161006457806395d89b41146102a1578063a22cb465146102b6578063b88d4fde146102d6578063c87b56dd146102f6578063e985e9c51461031657600080fd5b806345576f941461022b57806345f8fa801461024c5780636352211e1461026157806370a082311461028157600080fd5b80630f08efe0116100d15780630f08efe0146101b4578063202e3740146101d657806323b872dd146101eb57806342842e0e1461020b57600080fd5b806301ffc9a71461010357806306fdde0314610138578063081812fc1461015a578063095ea7b314610192575b600080fd5b34801561010f57600080fd5b5061012361011e366004611879565b61035f565b60405190151581526020015b60405180910390f35b34801561014457600080fd5b5061014d6103b1565b60405161012f91906118ee565b34801561016657600080fd5b5061017a610175366004611901565b610443565b6040516001600160a01b03909116815260200161012f565b34801561019e57600080fd5b506101b26101ad366004611936565b6104d0565b005b3480156101c057600080fd5b506101c96105e6565b60405161012f9190611960565b3480156101e257600080fd5b506101c9610762565b3480156101f757600080fd5b506101b26102063660046119d2565b610929565b34801561021757600080fd5b506101b26102263660046119d2565b61095a565b61023e610239366004611a9a565b610975565b60405190815260200161012f565b34801561025857600080fd5b506101c96109af565b34801561026d57600080fd5b5061017a61027c366004611901565b610b76565b34801561028d57600080fd5b5061023e61029c366004611ae3565b610bed565b3480156102ad57600080fd5b5061014d610c74565b3480156102c257600080fd5b506101b26102d1366004611afe565b610c83565b3480156102e257600080fd5b506101b26102f1366004611b3a565b610c92565b34801561030257600080fd5b5061014d610311366004611901565b610cca565b34801561032257600080fd5b50610123610331366004611bb6565b6001600160a01b03918216600090815260056020908152604080832093909416825291909152205460ff1690565b60006001600160e01b031982166380ac58cd60e01b148061039057506001600160e01b03198216635b5e139f60e01b145b806103ab57506301ffc9a760e01b6001600160e01b03198316145b92915050565b6060600080546103c090611be9565b80601f01602080910402602001604051908101604052809291908181526020018280546103ec90611be9565b80156104395780601f1061040e57610100808354040283529160200191610439565b820191906000526020600020905b81548152906001019060200180831161041c57829003601f168201915b5050505050905090565b600061044e82610e41565b6104b45760405162461bcd60e51b815260206004820152602c60248201527f4552433732313a20617070726f76656420717565727920666f72206e6f6e657860448201526b34b9ba32b73a103a37b5b2b760a11b60648201526084015b60405180910390fd5b506000908152600460205260409020546001600160a01b031690565b60006104db82610b76565b9050806001600160a01b0316836001600160a01b031614156105495760405162461bcd60e51b815260206004820152602160248201527f4552433732313a20617070726f76616c20746f2063757272656e74206f776e656044820152603960f91b60648201526084016104ab565b336001600160a01b038216148061056557506105658133610331565b6105d75760405162461bcd60e51b815260206004820152603860248201527f4552433732313a20617070726f76652063616c6c6572206973206e6f74206f7760448201527f6e6572206e6f7220617070726f76656420666f7220616c6c000000000000000060648201526084016104ab565b6105e18383610e5e565b505050565b606060006105f360075490565b9050600061060060075490565b90506000808267ffffffffffffffff81111561061e5761061e611a0e565b60405190808252806020026020018201604052801561067057816020015b60408051608081018252600080825260208083018290529282018190526060820152825260001990920191018161063c5790505b50905060005b848110156107595730600a600061068e846001611c3a565b81526020810191909152604001600020600201546001600160a01b031614156107475760006106be826001611c3a565b6000818152600a602090815260409182902082516080810184528154815260018201546001600160a01b0390811693820193909352600282015492831693810193909352600160a01b90910460ff161515606083015285519293509185908790811061072c5761072c611c52565b6020908102919091010152610742600186611c3a565b945050505b8061075181611c68565b915050610676565b50949350505050565b6060600061076f60075490565b905060008060005b838110156107d25733600a600061078f846001611c3a565b81526020810191909152604001600020600201546001600160a01b031614156107c0576107bd600184611c3a565b92505b806107ca81611c68565b915050610777565b5060008267ffffffffffffffff8111156107ee576107ee611a0e565b60405190808252806020026020018201604052801561084057816020015b60408051608081018252600080825260208083018290529282018190526060820152825260001990920191018161080c5790505b50905060005b848110156107595733600a600061085e846001611c3a565b81526020810191909152604001600020600201546001600160a01b0316141561091757600061088e826001611c3a565b6000818152600a602090815260409182902082516080810184528154815260018201546001600160a01b0390811693820193909352600282015492831693810193909352600160a01b90910460ff16151560608301528551929350918590879081106108fc576108fc611c52565b6020908102919091010152610912600186611c3a565b945050505b8061092181611c68565b915050610846565b6109333382610ecc565b61094f5760405162461bcd60e51b81526004016104ab90611c83565b6105e1838383610fb5565b6105e183838360405180602001604052806000815250610c92565b6000610985600780546001019055565b600061099060075490565b905061099c3382611151565b6109a68184611284565b6103ab8161130f565b606060006109bc60075490565b905060008060005b83811015610a1f5733600a60006109dc846001611c3a565b81526020810191909152604001600020600101546001600160a01b03161415610a0d57610a0a600184611c3a565b92505b80610a1781611c68565b9150506109c4565b5060008267ffffffffffffffff811115610a3b57610a3b611a0e565b604051908082528060200260200182016040528015610a8d57816020015b604080516080810182526000808252602080830182905292820181905260608201528252600019909201910181610a595790505b50905060005b848110156107595733600a6000610aab846001611c3a565b81526020810191909152604001600020600101546001600160a01b03161415610b64576000610adb826001611c3a565b6000818152600a602090815260409182902082516080810184528154815260018201546001600160a01b0390811693820193909352600282015492831693810193909352600160a01b90910460ff1615156060830152855192935091859087908110610b4957610b49611c52565b6020908102919091010152610b5f600186611c3a565b945050505b80610b6e81611c68565b915050610a93565b6000818152600260205260408120546001600160a01b0316806103ab5760405162461bcd60e51b815260206004820152602960248201527f4552433732313a206f776e657220717565727920666f72206e6f6e657869737460448201526832b73a103a37b5b2b760b91b60648201526084016104ab565b60006001600160a01b038216610c585760405162461bcd60e51b815260206004820152602a60248201527f4552433732313a2062616c616e636520717565727920666f7220746865207a65604482015269726f206164647265737360b01b60648201526084016104ab565b506001600160a01b031660009081526003602052604090205490565b6060600180546103c090611be9565b610c8e3383836113e2565b5050565b610c9c3383610ecc565b610cb85760405162461bcd60e51b81526004016104ab90611c83565b610cc4848484846114b1565b50505050565b6060610cd582610e41565b610d3b5760405162461bcd60e51b815260206004820152603160248201527f45524337323155524953746f726167653a2055524920717565727920666f72206044820152703737b732bc34b9ba32b73a103a37b5b2b760791b60648201526084016104ab565b60008281526006602052604081208054610d5490611be9565b80601f0160208091040260200160405190810160405280929190818152602001828054610d8090611be9565b8015610dcd5780601f10610da257610100808354040283529160200191610dcd565b820191906000526020600020905b815481529060010190602001808311610db057829003601f168201915b505050505090506000610deb60408051602081019091526000815290565b9050805160001415610dfe575092915050565b815115610e30578082604051602001610e18929190611cd4565b60405160208183030381529060405292505050919050565b610e39846114e4565b949350505050565b6000908152600260205260409020546001600160a01b0316151590565b600081815260046020526040902080546001600160a01b0319166001600160a01b0384169081179091558190610e9382610b76565b6001600160a01b03167f8c5be1e5ebec7d5bd14f71427d1e84f3dd0314c0f7b2291e5b200ac8c7c3b92560405160405180910390a45050565b6000610ed782610e41565b610f385760405162461bcd60e51b815260206004820152602c60248201527f4552433732313a206f70657261746f7220717565727920666f72206e6f6e657860448201526b34b9ba32b73a103a37b5b2b760a11b60648201526084016104ab565b6000610f4383610b76565b9050806001600160a01b0316846001600160a01b03161480610f8a57506001600160a01b0380821660009081526005602090815260408083209388168352929052205460ff165b80610e395750836001600160a01b0316610fa384610443565b6001600160a01b031614949350505050565b826001600160a01b0316610fc882610b76565b6001600160a01b03161461102c5760405162461bcd60e51b815260206004820152602560248201527f4552433732313a207472616e736665722066726f6d20696e636f72726563742060448201526437bbb732b960d91b60648201526084016104ab565b6001600160a01b03821661108e5760405162461bcd60e51b8152602060048201526024808201527f4552433732313a207472616e7366657220746f20746865207a65726f206164646044820152637265737360e01b60648201526084016104ab565b611099600082610e5e565b6001600160a01b03831660009081526003602052604081208054600192906110c2908490611d03565b90915550506001600160a01b03821660009081526003602052604081208054600192906110f0908490611c3a565b909155505060008181526002602052604080822080546001600160a01b0319166001600160a01b0386811691821790925591518493918716917fddf252ad1be2c89b69c2b068fc378daa952ba7f163c4a11628f55a4df523b3ef91a4505050565b6001600160a01b0382166111a75760405162461bcd60e51b815260206004820181905260248201527f4552433732313a206d696e7420746f20746865207a65726f206164647265737360448201526064016104ab565b6111b081610e41565b156111fd5760405162461bcd60e51b815260206004820152601c60248201527f4552433732313a20746f6b656e20616c7265616479206d696e7465640000000060448201526064016104ab565b6001600160a01b0382166000908152600360205260408120805460019290611226908490611c3a565b909155505060008181526002602052604080822080546001600160a01b0319166001600160a01b03861690811790915590518392907fddf252ad1be2c89b69c2b068fc378daa952ba7f163c4a11628f55a4df523b3ef908290a45050565b61128d82610e41565b6112f05760405162461bcd60e51b815260206004820152602e60248201527f45524337323155524953746f726167653a2055524920736574206f66206e6f6e60448201526d32bc34b9ba32b73a103a37b5b2b760911b60648201526084016104ab565b600082815260066020908152604090912082516105e1928401906117c7565b6040805160808101825282815233602080830182815230848601818152600060608701818152898252600a909552969096209451855590516001850180546001600160a01b039283166001600160a01b031990911617905594516002909401805492511515600160a01b026001600160a81b031990931694909516939093171790925561139d919083610fb5565b60408051338152306020820152600081830152905182917fac1bd62278cac1e3927d9af6d75c2a00c32db78ed0bb3a721d009050f786b7e8919081900360600190a250565b816001600160a01b0316836001600160a01b031614156114445760405162461bcd60e51b815260206004820152601960248201527f4552433732313a20617070726f766520746f2063616c6c65720000000000000060448201526064016104ab565b6001600160a01b03838116600081815260056020908152604080832094871680845294825291829020805460ff191686151590811790915591519182527f17307eab39ab6107e8899845ad3d59bd9653f200f220920489ca2b5937696c31910160405180910390a3505050565b6114bc848484610fb5565b6114c8848484846115bc565b610cc45760405162461bcd60e51b81526004016104ab90611d1a565b60606114ef82610e41565b6115535760405162461bcd60e51b815260206004820152602f60248201527f4552433732314d657461646174613a2055524920717565727920666f72206e6f60448201526e3732bc34b9ba32b73a103a37b5b2b760891b60648201526084016104ab565b600061156a60408051602081019091526000815290565b9050600081511161158a57604051806020016040528060008152506115b5565b80611594846116c9565b6040516020016115a5929190611cd4565b6040516020818303038152906040525b9392505050565b60006001600160a01b0384163b156116be57604051630a85bd0160e11b81526001600160a01b0385169063150b7a0290611600903390899088908890600401611d6c565b602060405180830381600087803b15801561161a57600080fd5b505af192505050801561164a575060408051601f3d908101601f1916820190925261164791810190611da9565b60015b6116a4573d808015611678576040519150601f19603f3d011682016040523d82523d6000602084013e61167d565b606091505b50805161169c5760405162461bcd60e51b81526004016104ab90611d1a565b805181602001fd5b6001600160e01b031916630a85bd0160e11b149050610e39565b506001949350505050565b6060816116ed5750506040805180820190915260018152600360fc1b602082015290565b8160005b8115611717578061170181611c68565b91506117109050600a83611ddc565b91506116f1565b60008167ffffffffffffffff81111561173257611732611a0e565b6040519080825280601f01601f19166020018201604052801561175c576020820181803683370190505b5090505b8415610e3957611771600183611d03565b915061177e600a86611df0565b611789906030611c3a565b60f81b81838151811061179e5761179e611c52565b60200101906001600160f81b031916908160001a9053506117c0600a86611ddc565b9450611760565b8280546117d390611be9565b90600052602060002090601f0160209004810192826117f5576000855561183b565b82601f1061180e57805160ff191683800117855561183b565b8280016001018555821561183b579182015b8281111561183b578251825591602001919060010190611820565b5061184792915061184b565b5090565b5b80821115611847576000815560010161184c565b6001600160e01b03198116811461187657600080fd5b50565b60006020828403121561188b57600080fd5b81356115b581611860565b60005b838110156118b1578181015183820152602001611899565b83811115610cc45750506000910152565b600081518084526118da816020860160208601611896565b601f01601f19169290920160200192915050565b6020815260006115b560208301846118c2565b60006020828403121561191357600080fd5b5035919050565b80356001600160a01b038116811461193157600080fd5b919050565b6000806040838503121561194957600080fd5b6119528361191a565b946020939093013593505050565b602080825282518282018190526000919060409081850190868401855b828110156119c557815180518552868101516001600160a01b03908116888701528682015116868601526060908101511515908501526080909301929085019060010161197d565b5091979650505050505050565b6000806000606084860312156119e757600080fd5b6119f08461191a565b92506119fe6020850161191a565b9150604084013590509250925092565b634e487b7160e01b600052604160045260246000fd5b600067ffffffffffffffff80841115611a3f57611a3f611a0e565b604051601f8501601f19908116603f01168101908282118183101715611a6757611a67611a0e565b81604052809350858152868686011115611a8057600080fd5b858560208301376000602087830101525050509392505050565b600060208284031215611aac57600080fd5b813567ffffffffffffffff811115611ac357600080fd5b8201601f81018413611ad457600080fd5b610e3984823560208401611a24565b600060208284031215611af557600080fd5b6115b58261191a565b60008060408385031215611b1157600080fd5b611b1a8361191a565b915060208301358015158114611b2f57600080fd5b809150509250929050565b60008060008060808587031215611b5057600080fd5b611b598561191a565b9350611b676020860161191a565b925060408501359150606085013567ffffffffffffffff811115611b8a57600080fd5b8501601f81018713611b9b57600080fd5b611baa87823560208401611a24565b91505092959194509250565b60008060408385031215611bc957600080fd5b611bd28361191a565b9150611be06020840161191a565b90509250929050565b600181811c90821680611bfd57607f821691505b60208210811415611c1e57634e487b7160e01b600052602260045260246000fd5b50919050565b634e487b7160e01b600052601160045260246000fd5b60008219821115611c4d57611c4d611c24565b500190565b634e487b7160e01b600052603260045260246000fd5b6000600019821415611c7c57611c7c611c24565b5060010190565b60208082526031908201527f4552433732313a207472616e736665722063616c6c6572206973206e6f74206f6040820152701ddb995c881b9bdc88185c1c1c9bdd9959607a1b606082015260800190565b60008351611ce6818460208801611896565b835190830190611cfa818360208801611896565b01949350505050565b600082821015611d1557611d15611c24565b500390565b60208082526032908201527f4552433732313a207472616e7366657220746f206e6f6e20455243373231526560408201527131b2b4bb32b91034b6b83632b6b2b73a32b960711b606082015260800190565b6001600160a01b0385811682528416602082015260408101839052608060608201819052600090611d9f908301846118c2565b9695505050505050565b600060208284031215611dbb57600080fd5b81516115b581611860565b634e487b7160e01b600052601260045260246000fd5b600082611deb57611deb611dc6565b500490565b600082611dff57611dff611dc6565b50069056fea26469706673582212205543f1b7349964cb0fdcc5756ced737b0e04b68e0490cf35925be0de0369902f64736f6c63430008090033",
  "linkReferences": {},
  "deployedLinkReferences": {}
}